{
  "contractName": "LipToken",
  "abi": [
    {
      "inputs": [
        {
          "internalType": "string",
          "name": "_name",
          "type": "string"
        },
        {
          "internalType": "string",
          "name": "_symbol",
          "type": "string"
        }
      ],
      "stateMutability": "nonpayable",
      "type": "constructor"
    },
    {
      "anonymous": false,
      "inputs": [
        {
          "indexed": true,
          "internalType": "address",
          "name": "owner",
          "type": "address"
        },
        {
          "indexed": true,
          "internalType": "address",
          "name": "approved",
          "type": "address"
        },
        {
          "indexed": true,
          "internalType": "uint256",
          "name": "tokenId",
          "type": "uint256"
        }
      ],
      "name": "Approval",
      "type": "event"
    },
    {
      "anonymous": false,
      "inputs": [
        {
          "indexed": true,
          "internalType": "address",
          "name": "owner",
          "type": "address"
        },
        {
          "indexed": true,
          "internalType": "address",
          "name": "operator",
          "type": "address"
        },
        {
          "indexed": false,
          "internalType": "bool",
          "name": "approved",
          "type": "bool"
        }
      ],
      "name": "ApprovalForAll",
      "type": "event"
    },
    {
      "anonymous": false,
      "inputs": [
        {
          "indexed": true,
          "internalType": "address",
          "name": "owner",
          "type": "address"
        },
        {
          "indexed": false,
          "internalType": "uint256",
          "name": "id",
          "type": "uint256"
        },
        {
          "indexed": false,
          "internalType": "uint256",
          "name": "dna",
          "type": "uint256"
        }
      ],
      "name": "NewLip",
      "type": "event"
    },
    {
      "anonymous": false,
      "inputs": [
        {
          "indexed": true,
          "internalType": "address",
          "name": "previousOwner",
          "type": "address"
        },
        {
          "indexed": true,
          "internalType": "address",
          "name": "newOwner",
          "type": "address"
        }
      ],
      "name": "OwnershipTransferred",
      "type": "event"
    },
    {
      "anonymous": false,
      "inputs": [
        {
          "indexed": true,
          "internalType": "address",
          "name": "from",
          "type": "address"
        },
        {
          "indexed": true,
          "internalType": "address",
          "name": "to",
          "type": "address"
        },
        {
          "indexed": true,
          "internalType": "uint256",
          "name": "tokenId",
          "type": "uint256"
        }
      ],
      "name": "Transfer",
      "type": "event"
    },
    {
      "inputs": [
        {
          "internalType": "address",
          "name": "to",
          "type": "address"
        },
        {
          "internalType": "uint256",
          "name": "tokenId",
          "type": "uint256"
        }
      ],
      "name": "approve",
      "outputs": [],
      "stateMutability": "nonpayable",
      "type": "function"
    },
    {
      "inputs": [
        {
          "internalType": "address",
          "name": "owner",
          "type": "address"
        }
      ],
      "name": "balanceOf",
      "outputs": [
        {
          "internalType": "uint256",
          "name": "",
          "type": "uint256"
        }
      ],
      "stateMutability": "view",
      "type": "function",
      "constant": true
    },
    {
      "inputs": [
        {
          "internalType": "uint256",
          "name": "tokenId",
          "type": "uint256"
        }
      ],
      "name": "getApproved",
      "outputs": [
        {
          "internalType": "address",
          "name": "",
          "type": "address"
        }
      ],
      "stateMutability": "view",
      "type": "function",
      "constant": true
    },
    {
      "inputs": [
        {
          "internalType": "address",
          "name": "owner",
          "type": "address"
        },
        {
          "internalType": "address",
          "name": "operator",
          "type": "address"
        }
      ],
      "name": "isApprovedForAll",
      "outputs": [
        {
          "internalType": "bool",
          "name": "",
          "type": "bool"
        }
      ],
      "stateMutability": "view",
      "type": "function",
      "constant": true
    },
    {
      "inputs": [
        {
          "internalType": "uint256",
          "name": "",
          "type": "uint256"
        }
      ],
      "name": "lips",
      "outputs": [
        {
          "internalType": "string",
          "name": "name",
          "type": "string"
        },
        {
          "internalType": "uint256",
          "name": "id",
          "type": "uint256"
        },
        {
          "internalType": "uint256",
          "name": "dna",
          "type": "uint256"
        },
        {
          "internalType": "uint8",
          "name": "level",
          "type": "uint8"
        },
        {
          "internalType": "uint8",
          "name": "rarity",
          "type": "uint8"
        }
      ],
      "stateMutability": "view",
      "type": "function",
      "constant": true
    },
    {
      "inputs": [],
      "name": "name",
      "outputs": [
        {
          "internalType": "string",
          "name": "",
          "type": "string"
        }
      ],
      "stateMutability": "view",
      "type": "function",
      "constant": true
    },
    {
      "inputs": [],
      "name": "owner",
      "outputs": [
        {
          "internalType": "address",
          "name": "",
          "type": "address"
        }
      ],
      "stateMutability": "view",
      "type": "function",
      "constant": true
    },
    {
      "inputs": [
        {
          "internalType": "uint256",
          "name": "tokenId",
          "type": "uint256"
        }
      ],
      "name": "ownerOf",
      "outputs": [
        {
          "internalType": "address",
          "name": "",
          "type": "address"
        }
      ],
      "stateMutability": "view",
      "type": "function",
      "constant": true
    },
    {
      "inputs": [],
      "name": "renounceOwnership",
      "outputs": [],
      "stateMutability": "nonpayable",
      "type": "function"
    },
    {
      "inputs": [
        {
          "internalType": "address",
          "name": "from",
          "type": "address"
        },
        {
          "internalType": "address",
          "name": "to",
          "type": "address"
        },
        {
          "internalType": "uint256",
          "name": "tokenId",
          "type": "uint256"
        }
      ],
      "name": "safeTransferFrom",
      "outputs": [],
      "stateMutability": "nonpayable",
      "type": "function"
    },
    {
      "inputs": [
        {
          "internalType": "address",
          "name": "from",
          "type": "address"
        },
        {
          "internalType": "address",
          "name": "to",
          "type": "address"
        },
        {
          "internalType": "uint256",
          "name": "tokenId",
          "type": "uint256"
        },
        {
          "internalType": "bytes",
          "name": "_data",
          "type": "bytes"
        }
      ],
      "name": "safeTransferFrom",
      "outputs": [],
      "stateMutability": "nonpayable",
      "type": "function"
    },
    {
      "inputs": [
        {
          "internalType": "address",
          "name": "operator",
          "type": "address"
        },
        {
          "internalType": "bool",
          "name": "approved",
          "type": "bool"
        }
      ],
      "name": "setApprovalForAll",
      "outputs": [],
      "stateMutability": "nonpayable",
      "type": "function"
    },
    {
      "inputs": [
        {
          "internalType": "bytes4",
          "name": "interfaceId",
          "type": "bytes4"
        }
      ],
      "name": "supportsInterface",
      "outputs": [
        {
          "internalType": "bool",
          "name": "",
          "type": "bool"
        }
      ],
      "stateMutability": "view",
      "type": "function",
      "constant": true
    },
    {
      "inputs": [],
      "name": "symbol",
      "outputs": [
        {
          "internalType": "string",
          "name": "",
          "type": "string"
        }
      ],
      "stateMutability": "view",
      "type": "function",
      "constant": true
    },
    {
      "inputs": [
        {
          "internalType": "uint256",
          "name": "tokenId",
          "type": "uint256"
        }
      ],
      "name": "tokenURI",
      "outputs": [
        {
          "internalType": "string",
          "name": "",
          "type": "string"
        }
      ],
      "stateMutability": "view",
      "type": "function",
      "constant": true
    },
    {
      "inputs": [
        {
          "internalType": "address",
          "name": "from",
          "type": "address"
        },
        {
          "internalType": "address",
          "name": "to",
          "type": "address"
        },
        {
          "internalType": "uint256",
          "name": "tokenId",
          "type": "uint256"
        }
      ],
      "name": "transferFrom",
      "outputs": [],
      "stateMutability": "nonpayable",
      "type": "function"
    },
    {
      "inputs": [
        {
          "internalType": "address",
          "name": "newOwner",
          "type": "address"
        }
      ],
      "name": "transferOwnership",
      "outputs": [],
      "stateMutability": "nonpayable",
      "type": "function"
    },
    {
      "inputs": [
        {
          "internalType": "uint256",
          "name": "_fee",
          "type": "uint256"
        }
      ],
      "name": "updateFee",
      "outputs": [],
      "stateMutability": "nonpayable",
      "type": "function"
    },
    {
      "inputs": [],
      "name": "withdraw",
      "outputs": [],
      "stateMutability": "payable",
      "type": "function",
      "payable": true
    },
    {
      "inputs": [
        {
          "internalType": "string",
          "name": "_name",
          "type": "string"
        }
      ],
      "name": "createRandomLip",
      "outputs": [],
      "stateMutability": "payable",
      "type": "function",
      "payable": true
    },
    {
      "inputs": [],
      "name": "getLips",
      "outputs": [
        {
          "components": [
            {
              "internalType": "string",
              "name": "name",
              "type": "string"
            },
            {
              "internalType": "uint256",
              "name": "id",
              "type": "uint256"
            },
            {
              "internalType": "uint256",
              "name": "dna",
              "type": "uint256"
            },
            {
              "internalType": "uint8",
              "name": "level",
              "type": "uint8"
            },
            {
              "internalType": "uint8",
              "name": "rarity",
              "type": "uint8"
            }
          ],
          "internalType": "struct LipToken.Lip[]",
          "name": "",
          "type": "tuple[]"
        }
      ],
      "stateMutability": "view",
      "type": "function",
      "constant": true
    }
  ],
  "bytecode": "0x6080604052670de0b6b3a76400006008553480156200001d57600080fd5b50604051620021bb380380620021bb83398101604081905262000040916200023b565b81518290829062000059906000906020850190620000ea565b5080516200006f906001906020840190620000ea565b5050506200008c620000866200009460201b60201c565b62000098565b5050620002f5565b3390565b600680546001600160a01b038381166001600160a01b0319831681179093556040519116919082907f8be0079c531659141344cd1fd0a4f28419497f9722a3daafe3b4186f6b6457e090600090a35050565b828054620000f890620002a2565b90600052602060002090601f0160209004810192826200011c576000855562000167565b82601f106200013757805160ff191683800117855562000167565b8280016001018555821562000167579182015b82811115620001675782518255916020019190600101906200014a565b506200017592915062000179565b5090565b5b808211156200017557600081556001016200017a565b600082601f830112620001a1578081fd5b81516001600160401b0380821115620001be57620001be620002df565b6040516020601f8401601f1916820181018381118382101715620001e657620001e6620002df565b6040528382528584018101871015620001fd578485fd5b8492505b8383101562000220578583018101518284018201529182019162000201565b838311156200023157848185840101525b5095945050505050565b600080604083850312156200024e578182fd5b82516001600160401b038082111562000265578384fd5b620002738683870162000190565b9350602085015191508082111562000289578283fd5b50620002988582860162000190565b9150509250929050565b600281046001821680620002b757607f821691505b60208210811415620002d957634e487b7160e01b600052602260045260246000fd5b50919050565b634e487b7160e01b600052604160045260246000fd5b611eb680620003056000396000f3fe60806040526004361061012a5760003560e01c806370a08231116100ab57806395d89b411161006f57806395d89b411461031b578063a22cb46514610330578063b88d4fde14610350578063c87b56dd14610370578063e985e9c514610390578063f2fde38b146103b05761012a565b806370a0823114610282578063715018a6146102af57806383b5daf7146102c45780638da5cb5b146102e65780639012c4a8146102fb5761012a565b80633ccfd60b116100f25780633ccfd60b146101f657806342842e0e146101fe5780635ec163db1461021e5780636352211e1461024f578063698d640c1461026f5761012a565b806301ffc9a71461012f57806306fdde0314610165578063081812fc14610187578063095ea7b3146101b457806323b872dd146101d6575b600080fd5b34801561013b57600080fd5b5061014f61014a36600461164d565b6103d0565b60405161015c919061184a565b60405180910390f35b34801561017157600080fd5b5061017a610418565b60405161015c9190611855565b34801561019357600080fd5b506101a76101a23660046116cb565b6104aa565b60405161015c919061175e565b3480156101c057600080fd5b506101d46101cf366004611624565b6104f6565b005b3480156101e257600080fd5b506101d46101f1366004611536565b61058e565b6101d46105c6565b34801561020a57600080fd5b506101d4610219366004611536565b61064b565b34801561022a57600080fd5b5061023e6102393660046116cb565b610666565b60405161015c959493929190611868565b34801561025b57600080fd5b506101a761026a3660046116cb565b61073c565b6101d461027d366004611685565b610771565b34801561028e57600080fd5b506102a261029d3660046114ea565b61079f565b60405161015c9190611d38565b3480156102bb57600080fd5b506101d46107e3565b3480156102d057600080fd5b506102d961082e565b60405161015c91906117af565b3480156102f257600080fd5b506101a7610954565b34801561030757600080fd5b506101d46103163660046116cb565b610963565b34801561032757600080fd5b5061017a6109a7565b34801561033c57600080fd5b506101d461034b3660046115ea565b6109b6565b34801561035c57600080fd5b506101d461036b366004611571565b610a84565b34801561037c57600080fd5b5061017a61038b3660046116cb565b610ac3565b34801561039c57600080fd5b5061014f6103ab366004611504565b610b46565b3480156103bc57600080fd5b506101d46103cb3660046114ea565b610b74565b60006001600160e01b031982166380ac58cd60e01b148061040157506001600160e01b03198216635b5e139f60e01b145b80610410575061041082610be2565b90505b919050565b60606000805461042790611dbe565b80601f016020809104026020016040519081016040528092919081815260200182805461045390611dbe565b80156104a05780601f10610475576101008083540402835291602001916104a0565b820191906000526020600020905b81548152906001019060200180831161048357829003601f168201915b5050505050905090565b60006104b582610bfb565b6104da5760405162461bcd60e51b81526004016104d190611b8d565b60405180910390fd5b506000908152600460205260409020546001600160a01b031690565b60006105018261073c565b9050806001600160a01b0316836001600160a01b031614156105355760405162461bcd60e51b81526004016104d190611ca6565b806001600160a01b0316610547610c18565b6001600160a01b031614806105635750610563816103ab610c18565b61057f5760405162461bcd60e51b81526004016104d190611a68565b6105898383610c1c565b505050565b61059f610599610c18565b82610c8a565b6105bb5760405162461bcd60e51b81526004016104d190611ce7565b610589838383610d0f565b6105ce610c18565b6001600160a01b03166105df610954565b6001600160a01b0316146106055760405162461bcd60e51b81526004016104d190611bd9565b600061060f610954565b6040519091506001600160a01b038216904780156108fc02916000818181858888f19350505050158015610647573d6000803e3d6000fd5b5050565b61058983838360405180602001604052806000815250610a84565b6009818154811061067657600080fd5b906000526020600020906004020160009150905080600001805461069990611dbe565b80601f01602080910402602001604051908101604052809291908181526020018280546106c590611dbe565b80156107125780601f106106e757610100808354040283529160200191610712565b820191906000526020600020905b8154815290600101906020018083116106f557829003601f168201915b50505050600183015460028401546003909401549293909290915060ff8082169161010090041685565b6000818152600260205260408120546001600160a01b0316806104105760405162461bcd60e51b81526004016104d190611b0f565b6008543410156107935760405162461bcd60e51b81526004016104d1906119ec565b61079c81610e3c565b50565b60006001600160a01b0382166107c75760405162461bcd60e51b81526004016104d190611ac5565b506001600160a01b031660009081526003602052604090205490565b6107eb610c18565b6001600160a01b03166107fc610954565b6001600160a01b0316146108225760405162461bcd60e51b81526004016104d190611bd9565b61082c6000610f91565b565b60606009805480602002602001604051908101604052809291908181526020016000905b8282101561094b57838290600052602060002090600402016040518060a001604052908160008201805461088590611dbe565b80601f01602080910402602001604051908101604052809291908181526020018280546108b190611dbe565b80156108fe5780601f106108d3576101008083540402835291602001916108fe565b820191906000526020600020905b8154815290600101906020018083116108e157829003601f168201915b50505091835250506001828101546020808401919091526002840154604084015260039093015460ff80821660608501526101009091041660809092019190915291835292019101610852565b50505050905090565b6006546001600160a01b031690565b61096b610c18565b6001600160a01b031661097c610954565b6001600160a01b0316146109a25760405162461bcd60e51b81526004016104d190611bd9565b600855565b60606001805461042790611dbe565b6109be610c18565b6001600160a01b0316826001600160a01b031614156109ef5760405162461bcd60e51b81526004016104d1906119b5565b80600560006109fc610c18565b6001600160a01b03908116825260208083019390935260409182016000908120918716808252919093529120805460ff191692151592909217909155610a40610c18565b6001600160a01b03167f17307eab39ab6107e8899845ad3d59bd9653f200f220920489ca2b5937696c3183604051610a78919061184a565b60405180910390a35050565b610a95610a8f610c18565b83610c8a565b610ab15760405162461bcd60e51b81526004016104d190611ce7565b610abd84848484610fe3565b50505050565b6060610ace82610bfb565b610aea5760405162461bcd60e51b81526004016104d190611c57565b6000610af4611016565b90506000815111610b145760405180602001604052806000815250610b3f565b80610b1e84611028565b604051602001610b2f92919061170f565b6040516020818303038152906040525b9392505050565b6001600160a01b03918216600090815260056020908152604080832093909416825291909152205460ff1690565b610b7c610c18565b6001600160a01b0316610b8d610954565b6001600160a01b031614610bb35760405162461bcd60e51b81526004016104d190611bd9565b6001600160a01b038116610bd95760405162461bcd60e51b81526004016104d1906118f4565b61079c81610f91565b6001600160e01b031981166301ffc9a760e01b14919050565b6000908152600260205260409020546001600160a01b0316151590565b3390565b600081815260046020526040902080546001600160a01b0319166001600160a01b0384169081179091558190610c518261073c565b6001600160a01b03167f8c5be1e5ebec7d5bd14f71427d1e84f3dd0314c0f7b2291e5b200ac8c7c3b92560405160405180910390a45050565b6000610c9582610bfb565b610cb15760405162461bcd60e51b81526004016104d190611a1c565b6000610cbc8361073c565b9050806001600160a01b0316846001600160a01b03161480610cf75750836001600160a01b0316610cec846104aa565b6001600160a01b0316145b80610d075750610d078185610b46565b949350505050565b826001600160a01b0316610d228261073c565b6001600160a01b031614610d485760405162461bcd60e51b81526004016104d190611c0e565b6001600160a01b038216610d6e5760405162461bcd60e51b81526004016104d190611971565b610d79838383610589565b610d84600082610c1c565b6001600160a01b0383166000908152600360205260408120805460019290610dad908490611d7b565b90915550506001600160a01b0382166000908152600360205260408120805460019290610ddb908490611d4f565b909155505060008181526002602052604080822080546001600160a01b0319166001600160a01b0386811691821790925591518493918716917fddf252ad1be2c89b69c2b068fc378daa952ba7f163c4a11628f55a4df523b3ef91a4505050565b6000610e486064611143565b90506000610e5c662386f26fc10000611143565b6040805160a08101825285815260075460208083019190915291810183905260016060820181905260ff86166080830152600980549182018155600052815180519495509193849360049092027f6e1540171b6c0c960b71a7020d9f60077f6af931a8bbf590da0223dacf75c7af0192610eda9284929101906113ca565b50602082015160018201556040820151600282015560608201516003909101805460809093015160ff9081166101000261ff00199190931660ff199094169390931792909216179055600754610f3190339061117d565b336001600160a01b03167f24d2d558f98bdd9d21339e119fc0b03e213c7d05affd838ac2ee136d90e3bbeb60075484604051610f6e929190611d41565b60405180910390a260078054906000610f8683611df9565b919050555050505050565b600680546001600160a01b038381166001600160a01b0319831681179093556040519116919082907f8be0079c531659141344cd1fd0a4f28419497f9722a3daafe3b4186f6b6457e090600090a35050565b610fee848484610d0f565b610ffa84848484611197565b610abd5760405162461bcd60e51b81526004016104d1906118a2565b60408051602081019091526000815290565b60608161104d57506040805180820190915260018152600360fc1b6020820152610413565b8160005b8115611077578061106181611df9565b91506110709050600a83611d67565b9150611051565b60008167ffffffffffffffff8111156110a057634e487b7160e01b600052604160045260246000fd5b6040519080825280601f01601f1916602001820160405280156110ca576020820181803683370190505b5090505b8415610d07576110df600183611d7b565b91506110ec600a86611e14565b6110f7906030611d4f565b60f81b81838151811061111a57634e487b7160e01b600052603260045260246000fd5b60200101906001600160f81b031916908160001a90535061113c600a86611d67565b94506110ce565b600080423360405160200161115992919061173e565b60408051601f1981840301815291905280516020909101209050610b3f8382611e14565b6106478282604051806020016040528060008152506112b2565b60006111ab846001600160a01b03166112e5565b156112a757836001600160a01b031663150b7a026111c7610c18565b8786866040518563ffffffff1660e01b81526004016111e99493929190611772565b602060405180830381600087803b15801561120357600080fd5b505af1925050508015611233575060408051601f3d908101601f1916820190925261123091810190611669565b60015b61128d573d808015611261576040519150601f19603f3d011682016040523d82523d6000602084013e611266565b606091505b5080516112855760405162461bcd60e51b81526004016104d1906118a2565b805181602001fd5b6001600160e01b031916630a85bd0160e11b149050610d07565b506001949350505050565b6112bc83836112eb565b6112c96000848484611197565b6105895760405162461bcd60e51b81526004016104d1906118a2565b3b151590565b6001600160a01b0382166113115760405162461bcd60e51b81526004016104d190611b58565b61131a81610bfb565b156113375760405162461bcd60e51b81526004016104d19061193a565b61134360008383610589565b6001600160a01b038216600090815260036020526040812080546001929061136c908490611d4f565b909155505060008181526002602052604080822080546001600160a01b0319166001600160a01b03861690811790915590518392907fddf252ad1be2c89b69c2b068fc378daa952ba7f163c4a11628f55a4df523b3ef908290a45050565b8280546113d690611dbe565b90600052602060002090601f0160209004810192826113f8576000855561143e565b82601f1061141157805160ff191683800117855561143e565b8280016001018555821561143e579182015b8281111561143e578251825591602001919060010190611423565b5061144a92915061144e565b5090565b5b8082111561144a576000815560010161144f565b600067ffffffffffffffff8084111561147e5761147e611e54565b604051601f8501601f1916810160200182811182821017156114a2576114a2611e54565b6040528481529150818385018610156114ba57600080fd5b8484602083013760006020868301015250509392505050565b80356001600160a01b038116811461041357600080fd5b6000602082840312156114fb578081fd5b610b3f826114d3565b60008060408385031215611516578081fd5b61151f836114d3565b915061152d602084016114d3565b90509250929050565b60008060006060848603121561154a578081fd5b611553846114d3565b9250611561602085016114d3565b9150604084013590509250925092565b60008060008060808587031215611586578081fd5b61158f856114d3565b935061159d602086016114d3565b925060408501359150606085013567ffffffffffffffff8111156115bf578182fd5b8501601f810187136115cf578182fd5b6115de87823560208401611463565b91505092959194509250565b600080604083850312156115fc578182fd5b611605836114d3565b915060208301358015158114611619578182fd5b809150509250929050565b60008060408385031215611636578182fd5b61163f836114d3565b946020939093013593505050565b60006020828403121561165e578081fd5b8135610b3f81611e6a565b60006020828403121561167a578081fd5b8151610b3f81611e6a565b600060208284031215611696578081fd5b813567ffffffffffffffff8111156116ac578182fd5b8201601f810184136116bc578182fd5b610d0784823560208401611463565b6000602082840312156116dc578081fd5b5035919050565b600081518084526116fb816020860160208601611d92565b601f01601f19169290920160200192915050565b60008351611721818460208801611d92565b835190830190611735818360208801611d92565b01949350505050565b91825260601b6bffffffffffffffffffffffff1916602082015260340190565b6001600160a01b0391909116815260200190565b6001600160a01b03858116825284166020820152604081018390526080606082018190526000906117a5908301846116e3565b9695505050505050565b60208082528251828201819052600091906040908185019080840286018301878501865b8381101561183c57603f19898403018552815160a081518186526117f9828701826116e3565b838b0151878c0152898401518a88015260608085015160ff90811691890191909152608094850151169390960192909252505093860193908601906001016117d3565b509098975050505050505050565b901515815260200190565b600060208252610b3f60208301846116e3565b600060a0825261187b60a08301886116e3565b602083019690965250604081019390935260ff918216606084015216608090910152919050565b60208082526032908201527f4552433732313a207472616e7366657220746f206e6f6e20455243373231526560408201527131b2b4bb32b91034b6b83632b6b2b73a32b960711b606082015260800190565b60208082526026908201527f4f776e61626c653a206e6577206f776e657220697320746865207a65726f206160408201526564647265737360d01b606082015260800190565b6020808252601c908201527f4552433732313a20746f6b656e20616c7265616479206d696e74656400000000604082015260600190565b60208082526024908201527f4552433732313a207472616e7366657220746f20746865207a65726f206164646040820152637265737360e01b606082015260800190565b60208082526019908201527f4552433732313a20617070726f766520746f2063616c6c657200000000000000604082015260600190565b602080825260169082015275151a1948199959481a5cc81b9bdd0818dbdc9c9958dd60521b604082015260600190565b6020808252602c908201527f4552433732313a206f70657261746f7220717565727920666f72206e6f6e657860408201526b34b9ba32b73a103a37b5b2b760a11b606082015260800190565b60208082526038908201527f4552433732313a20617070726f76652063616c6c6572206973206e6f74206f7760408201527f6e6572206e6f7220617070726f76656420666f7220616c6c0000000000000000606082015260800190565b6020808252602a908201527f4552433732313a2062616c616e636520717565727920666f7220746865207a65604082015269726f206164647265737360b01b606082015260800190565b60208082526029908201527f4552433732313a206f776e657220717565727920666f72206e6f6e657869737460408201526832b73a103a37b5b2b760b91b606082015260800190565b6020808252818101527f4552433732313a206d696e7420746f20746865207a65726f2061646472657373604082015260600190565b6020808252602c908201527f4552433732313a20617070726f76656420717565727920666f72206e6f6e657860408201526b34b9ba32b73a103a37b5b2b760a11b606082015260800190565b6020808252818101527f4f776e61626c653a2063616c6c6572206973206e6f7420746865206f776e6572604082015260600190565b60208082526029908201527f4552433732313a207472616e73666572206f6620746f6b656e2074686174206960408201526839903737ba1037bbb760b91b606082015260800190565b6020808252602f908201527f4552433732314d657461646174613a2055524920717565727920666f72206e6f60408201526e3732bc34b9ba32b73a103a37b5b2b760891b606082015260800190565b60208082526021908201527f4552433732313a20617070726f76616c20746f2063757272656e74206f776e656040820152603960f91b606082015260800190565b60208082526031908201527f4552433732313a207472616e736665722063616c6c6572206973206e6f74206f6040820152701ddb995c881b9bdc88185c1c1c9bdd9959607a1b606082015260800190565b90815260200190565b918252602082015260400190565b60008219821115611d6257611d62611e28565b500190565b600082611d7657611d76611e3e565b500490565b600082821015611d8d57611d8d611e28565b500390565b60005b83811015611dad578181015183820152602001611d95565b83811115610abd5750506000910152565b600281046001821680611dd257607f821691505b60208210811415611df357634e487b7160e01b600052602260045260246000fd5b50919050565b6000600019821415611e0d57611e0d611e28565b5060010190565b600082611e2357611e23611e3e565b500690565b634e487b7160e01b600052601160045260246000fd5b634e487b7160e01b600052601260045260246000fd5b634e487b7160e01b600052604160045260246000fd5b6001600160e01b03198116811461079c57600080fdfea2646970667358221220916f9986828dec9a84314aacd70f7d2a7b07b630269bf303b008d53f913e922764736f6c63430008000033",
  "immutableReferences": {},
  "source": "// SPDX-License-Identifier: GPL-3.0\r\n\r\npragma solidity ^0.8.0;\r\n\r\nimport \"@openzeppelin/contracts/token/ERC721/ERC721.sol\";\r\nimport \"@openzeppelin/contracts/access/Ownable.sol\";\r\n\r\ncontract LipToken is ERC721, Ownable {\r\n    constructor(string memory _name, string memory _symbol)\r\n        ERC721(_name, _symbol)\r\n    {}\r\n\r\n    uint256 COUNTER;\r\n\r\n    uint256 fee = 1 ether;\r\n\r\n    struct Lip {\r\n        string name;\r\n        uint256 id;\r\n        uint256 dna;\r\n        uint8 level;\r\n        uint8 rarity;\r\n    }\r\n\r\n    Lip[] public lips;\r\n\r\n    event NewLip(address indexed owner, uint256 id, uint256 dna);\r\n\r\n    //Helpers\r\n    function _createRandomNum(uint256 _mod) internal view returns (uint256) {\r\n        uint256 randomNum = uint256(\r\n            keccak256(abi.encodePacked(block.timestamp, msg.sender))\r\n        );\r\n        return randomNum % _mod;\r\n    }\r\n\r\n    function updateFee(uint256 _fee) external onlyOwner {\r\n        fee = _fee;\r\n    }\r\n\r\n    function withdraw() external payable onlyOwner {\r\n        address payable _owner = payable(owner());\r\n        _owner.transfer(address(this).balance);\r\n    }\r\n\r\n    //creation\r\n    function _createLip(string memory _name) internal {\r\n        uint8 randRarity = uint8(_createRandomNum(100));\r\n        uint256 randDna = _createRandomNum(10**16);\r\n\r\n        Lip memory newLip = Lip(_name, COUNTER, randDna, 1, randRarity);\r\n        lips.push(newLip);\r\n        _safeMint(msg.sender, COUNTER);\r\n\r\n        emit NewLip(msg.sender, COUNTER, randDna);\r\n        COUNTER++;\r\n    }\r\n\r\n    //\r\n    function createRandomLip(string memory _name) public payable {\r\n        require(msg.value >= fee, \"The fee is not correct\");\r\n        _createLip(_name);\r\n    }\r\n\r\n    //getters\r\n    function getLips() public view returns (Lip[] memory) {\r\n        return lips;\r\n    }\r\n}\r\n",
  "sourcePath": "C:/Users/Anna/Desktop/no-fungible/lips/contracts/LipsToken.sol",
  "compiler": {
    "name": "solc",
    "version": "0.8.0+commit.c7dfd78e.Emscripten.clang"
  },
  "schemaVersion": "3.4.1",
  "updatedAt": "2021-09-06T19:16:19.250Z",
  "networkType": "ethereum",
  "devdoc": {
    "kind": "dev",
    "methods": {
      "approve(address,uint256)": {
        "details": "See {IERC721-approve}."
      },
      "balanceOf(address)": {
        "details": "See {IERC721-balanceOf}."
      },
      "getApproved(uint256)": {
        "details": "See {IERC721-getApproved}."
      },
      "isApprovedForAll(address,address)": {
        "details": "See {IERC721-isApprovedForAll}."
      },
      "name()": {
        "details": "See {IERC721Metadata-name}."
      },
      "owner()": {
        "details": "Returns the address of the current owner."
      },
      "ownerOf(uint256)": {
        "details": "See {IERC721-ownerOf}."
      },
      "renounceOwnership()": {
        "details": "Leaves the contract without owner. It will not be possible to call `onlyOwner` functions anymore. Can only be called by the current owner. NOTE: Renouncing ownership will leave the contract without an owner, thereby removing any functionality that is only available to the owner."
      },
      "safeTransferFrom(address,address,uint256)": {
        "details": "See {IERC721-safeTransferFrom}."
      },
      "safeTransferFrom(address,address,uint256,bytes)": {
        "details": "See {IERC721-safeTransferFrom}."
      },
      "setApprovalForAll(address,bool)": {
        "details": "See {IERC721-setApprovalForAll}."
      },
      "supportsInterface(bytes4)": {
        "details": "See {IERC165-supportsInterface}."
      },
      "symbol()": {
        "details": "See {IERC721Metadata-symbol}."
      },
      "tokenURI(uint256)": {
        "details": "See {IERC721Metadata-tokenURI}."
      },
      "transferFrom(address,address,uint256)": {
        "details": "See {IERC721-transferFrom}."
      },
      "transferOwnership(address)": {
        "details": "Transfers ownership of the contract to a new account (`newOwner`). Can only be called by the current owner."
      }
    },
    "version": 1
  },
  "userdoc": {
    "kind": "user",
    "methods": {},
    "version": 1
  }
}